{
  "contractName": "ptvAcl",
  "abi": [
    {
      "inputs": [],
      "name": "addBlockFailure",
      "type": "error"
    },
    {
      "inputs": [],
      "name": "deleteBlockFailure",
      "type": "error"
    },
    {
      "inputs": [],
      "name": "grantAccessFailure",
      "type": "error"
    },
    {
      "inputs": [],
      "name": "removeAccessFailure",
      "type": "error"
    },
    {
      "inputs": [
        {
          "internalType": "string",
          "name": "",
          "type": "string"
        }
      ],
      "name": "fileMapping",
      "outputs": [
        {
          "internalType": "address",
          "name": "owner",
          "type": "address"
        }
      ],
      "stateMutability": "view",
      "type": "function",
      "constant": true
    },
    {
      "inputs": [
        {
          "internalType": "string",
          "name": "_fileChunkHash",
          "type": "string"
        }
      ],
      "name": "addBlock",
      "outputs": [],
      "stateMutability": "nonpayable",
      "type": "function"
    },
    {
      "inputs": [
        {
          "internalType": "string[]",
          "name": "_fileChunkHashes",
          "type": "string[]"
        }
      ],
      "name": "addBlockMultiple",
      "outputs": [],
      "stateMutability": "nonpayable",
      "type": "function"
    },
    {
      "inputs": [
        {
          "internalType": "string",
          "name": "_fileChunkHash",
          "type": "string"
        }
      ],
      "name": "amIOwner",
      "outputs": [
        {
          "internalType": "bool",
          "name": "",
          "type": "bool"
        }
      ],
      "stateMutability": "view",
      "type": "function",
      "constant": true
    },
    {
      "inputs": [
        {
          "internalType": "string[]",
          "name": "_fileChunkHashes",
          "type": "string[]"
        }
      ],
      "name": "amIOwnerMultiple",
      "outputs": [
        {
          "internalType": "bool[]",
          "name": "",
          "type": "bool[]"
        }
      ],
      "stateMutability": "view",
      "type": "function",
      "constant": true
    },
    {
      "inputs": [
        {
          "internalType": "address",
          "name": "_checkAddress",
          "type": "address"
        },
        {
          "internalType": "string",
          "name": "_fileChunkHash",
          "type": "string"
        }
      ],
      "name": "checkAccess",
      "outputs": [
        {
          "internalType": "bool",
          "name": "",
          "type": "bool"
        }
      ],
      "stateMutability": "view",
      "type": "function",
      "constant": true
    },
    {
      "inputs": [
        {
          "internalType": "address",
          "name": "_checkAddress",
          "type": "address"
        },
        {
          "internalType": "string[]",
          "name": "_fileChunkHashes",
          "type": "string[]"
        }
      ],
      "name": "checkAccessMultiple",
      "outputs": [
        {
          "internalType": "bool[]",
          "name": "",
          "type": "bool[]"
        }
      ],
      "stateMutability": "view",
      "type": "function",
      "constant": true
    },
    {
      "inputs": [],
      "name": "checkMessageSender",
      "outputs": [
        {
          "internalType": "address",
          "name": "",
          "type": "address"
        }
      ],
      "stateMutability": "view",
      "type": "function",
      "constant": true
    },
    {
      "inputs": [
        {
          "internalType": "string",
          "name": "_fileChunkHash",
          "type": "string"
        }
      ],
      "name": "deleteBlock",
      "outputs": [],
      "stateMutability": "nonpayable",
      "type": "function"
    },
    {
      "inputs": [
        {
          "internalType": "string[]",
          "name": "_fileChunkHashes",
          "type": "string[]"
        }
      ],
      "name": "deleteBlockMultiple",
      "outputs": [],
      "stateMutability": "nonpayable",
      "type": "function"
    },
    {
      "inputs": [
        {
          "internalType": "address",
          "name": "_inputAddress",
          "type": "address"
        },
        {
          "internalType": "string",
          "name": "_fileChunkHash",
          "type": "string"
        }
      ],
      "name": "grantAccess",
      "outputs": [],
      "stateMutability": "nonpayable",
      "type": "function"
    },
    {
      "inputs": [
        {
          "internalType": "address",
          "name": "_inputAddress",
          "type": "address"
        },
        {
          "internalType": "string[]",
          "name": "_fileChunkHashes",
          "type": "string[]"
        }
      ],
      "name": "grantAccessMultiple",
      "outputs": [],
      "stateMutability": "nonpayable",
      "type": "function"
    },
    {
      "inputs": [],
      "name": "inspectSender",
      "outputs": [
        {
          "internalType": "address",
          "name": "",
          "type": "address"
        }
      ],
      "stateMutability": "view",
      "type": "function",
      "constant": true
    },
    {
      "inputs": [
        {
          "internalType": "address",
          "name": "_inputAddress",
          "type": "address"
        },
        {
          "internalType": "string",
          "name": "_fileChunkHash",
          "type": "string"
        }
      ],
      "name": "removeAccess",
      "outputs": [],
      "stateMutability": "nonpayable",
      "type": "function"
    },
    {
      "inputs": [
        {
          "internalType": "address",
          "name": "_inputAddress",
          "type": "address"
        },
        {
          "internalType": "string[]",
          "name": "_fileChunkHashes",
          "type": "string[]"
        }
      ],
      "name": "removeAccessMultiple",
      "outputs": [],
      "stateMutability": "nonpayable",
      "type": "function"
    }
  ],
  "bytecode": "0x608060405234801561001057600080fd5b506119e9806100206000396000f3fe608060405234801561001057600080fd5b50600436106100f55760003560e01c8063b3b6f5f111610097578063dc6548b011610066578063dc6548b014610294578063e50fe48e146102b0578063f4d51c91146102cc578063ff72f2b3146102e8576100f5565b8063b3b6f5f1146101fc578063b3fb80b91461022c578063c25416a514610248578063caa877ac14610264576100f5565b80635a6e1671116100d35780635a6e1671146101645780636e22ce79146101805780638fb3120d146101b0578063a5657a91146101cc576100f5565b806326fa06fa146100fa5780634903b04414610116578063507d8d2114610134575b600080fd5b610114600480360381019061010f9190611480565b610306565b005b61011e61051b565b60405161012b91906114eb565b60405180910390f35b61014e60048036038101906101499190611566565b610523565b60405161015b919061167d565b60405180910390f35b61017e60048036038101906101799190611566565b610639565b005b61019a6004803603810190610195919061169f565b6106cf565b6040516101a791906116f7565b60405180910390f35b6101ca60048036038101906101c59190611712565b610765565b005b6101e660048036038101906101e19190611480565b6107fd565b6040516101f391906116f7565b60405180910390f35b61021660048036038101906102119190611712565b61094b565b604051610223919061167d565b60405180910390f35b61024660048036038101906102419190611712565b610a63565b005b610262600480360381019061025d919061169f565b610afb565b005b61027e6004803603810190610279919061169f565b610dc8565b60405161028b91906114eb565b60405180910390f35b6102ae60048036038101906102a9919061169f565b610e1c565b005b6102ca60048036038101906102c59190611480565b611014565b005b6102e660048036038101906102e19190611566565b61122a565b005b6102f06112c0565b6040516102fd91906114eb565b60405180910390f35b6000815114806103425750600073ffffffffffffffffffffffffffffffffffffffff168273ffffffffffffffffffffffffffffffffffffffff16145b15610379576040517f1b2bcb3600000000000000000000000000000000000000000000000000000000815260040160405180910390fd5b3373ffffffffffffffffffffffffffffffffffffffff166000826040516103a091906117ec565b908152602001604051809103902060000160009054906101000a900473ffffffffffffffffffffffffffffffffffffffff1673ffffffffffffffffffffffffffffffffffffffff161461041f576040517f1b2bcb3600000000000000000000000000000000000000000000000000000000815260040160405180910390fd5b6000808260405161043091906117ec565b908152602001604051809103902060010160008473ffffffffffffffffffffffffffffffffffffffff1673ffffffffffffffffffffffffffffffffffffffff16815260200190815260200160002060006101000a81548160ff0219169083151502179055506000816040516104a591906117ec565b9081526020016040518091039020600201829080600181540180825580915050600190039060005260206000200160009091909190916101000a81548173ffffffffffffffffffffffffffffffffffffffff021916908373ffffffffffffffffffffffffffffffffffffffff1602179055505050565b600033905090565b60606000808484905067ffffffffffffffff81111561054557610544611355565b5b6040519080825280602002602001820160405280156105735781602001602082028036833780820191505090505b509050600091505b8484905082101561062e576105f685858481811061059c5761059b611803565b5b90506020028101906105ae9190611841565b8080601f016020809104026020016040519081016040528093929190818152602001838380828437600081840152601f19601f820116905080830192505050505050506106cf565b81838151811061060957610608611803565b5b6020026020010190151590811515815250508180610626906118dd565b92505061057b565b809250505092915050565b60005b828290508110156106ca576106b783838381811061065d5761065c611803565b5b905060200281019061066f9190611841565b8080601f016020809104026020016040519081016040528093929190818152602001838380828437600081840152601f19601f82011690508083019250505050505050610afb565b80806106c2906118dd565b91505061063c565b505050565b6000808251148061074d57503373ffffffffffffffffffffffffffffffffffffffff1660008360405161070291906117ec565b908152602001604051809103902060000160009054906101000a900473ffffffffffffffffffffffffffffffffffffffff1673ffffffffffffffffffffffffffffffffffffffff1614155b1561075b5760009050610760565b600190505b919050565b60005b828290508110156107f7576107e48484848481811061078a57610789611803565b5b905060200281019061079c9190611841565b8080601f016020809104026020016040519081016040528093929190818152602001838380828437600081840152601f19601f82011690508083019250505050505050610306565b80806107ef906118dd565b915050610768565b50505050565b6000808251148061083a5750600073ffffffffffffffffffffffffffffffffffffffff168373ffffffffffffffffffffffffffffffffffffffff16145b156108485760009050610945565b60008260405161085891906117ec565b908152602001604051809103902060000160009054906101000a900473ffffffffffffffffffffffffffffffffffffffff1673ffffffffffffffffffffffffffffffffffffffff168373ffffffffffffffffffffffffffffffffffffffff1614806109325750600115156000836040516108d291906117ec565b908152602001604051809103902060010160008573ffffffffffffffffffffffffffffffffffffffff1673ffffffffffffffffffffffffffffffffffffffff16815260200190815260200160002060009054906101000a900460ff161515145b156109405760019050610945565b600090505b92915050565b60606000808484905067ffffffffffffffff81111561096d5761096c611355565b5b60405190808252806020026020018201604052801561099b5781602001602082028036833780820191505090505b509050600091505b84849050821015610a5757610a1f868686858181106109c5576109c4611803565b5b90506020028101906109d79190611841565b8080601f016020809104026020016040519081016040528093929190818152602001838380828437600081840152601f19601f820116905080830192505050505050506107fd565b818381518110610a3257610a31611803565b5b6020026020010190151590811515815250508180610a4f906118dd565b9250506109a3565b80925050509392505050565b60005b82829050811015610af557610ae284848484818110610a8857610a87611803565b5b9050602002810190610a9a9190611841565b8080601f016020809104026020016040519081016040528093929190818152602001838380828437600081840152601f19601f82011690508083019250505050505050611014565b8080610aed906118dd565b915050610a66565b50505050565b60008082511480610b7957503373ffffffffffffffffffffffffffffffffffffffff16600083604051610b2e91906117ec565b908152602001604051809103902060000160009054906101000a900473ffffffffffffffffffffffffffffffffffffffff1673ffffffffffffffffffffffffffffffffffffffff1614155b15610bb0576040517fc298768700000000000000000000000000000000000000000000000000000000815260040160405180910390fd5b60008083604051610bc191906117ec565b9081526020016040518091039020600201805490501115610d64576001600083604051610bee91906117ec565b908152602001604051809103902060020180549050610c0d9190611926565b90505b60008110610d635760008083604051610c2991906117ec565b908152602001604051809103902060010160008085604051610c4b91906117ec565b90815260200160405180910390206002018481548110610c6e57610c6d611803565b5b9060005260206000200160009054906101000a900473ffffffffffffffffffffffffffffffffffffffff1673ffffffffffffffffffffffffffffffffffffffff1673ffffffffffffffffffffffffffffffffffffffff16815260200190815260200160002060006101000a81548160ff021916908315150217905550600082604051610cfa91906117ec565b9081526020016040518091039020600201805480610d1b57610d1a61195a565b5b6001900381819060005260206000200160006101000a81549073ffffffffffffffffffffffffffffffffffffffff021916905590558080610d5b90611989565b915050610c10565b5b60008083604051610d7591906117ec565b908152602001604051809103902060000160006101000a81548173ffffffffffffffffffffffffffffffffffffffff021916908373ffffffffffffffffffffffffffffffffffffffff1602179055505050565b6000818051602081018201805184825260208301602085012081835280955050505050506000915090508060000160009054906101000a900473ffffffffffffffffffffffffffffffffffffffff16905081565b60008151118015610e9a5750600073ffffffffffffffffffffffffffffffffffffffff16600082604051610e5091906117ec565b908152602001604051809103902060000160009054906101000a900473ffffffffffffffffffffffffffffffffffffffff1673ffffffffffffffffffffffffffffffffffffffff16145b15610f045733600082604051610eb091906117ec565b908152602001604051809103902060000160006101000a81548173ffffffffffffffffffffffffffffffffffffffff021916908373ffffffffffffffffffffffffffffffffffffffff160217905550611011565b3373ffffffffffffffffffffffffffffffffffffffff16600082604051610f2b91906117ec565b908152602001604051809103902060000160009054906101000a900473ffffffffffffffffffffffffffffffffffffffff1673ffffffffffffffffffffffffffffffffffffffff161415610fde5733600082604051610f8a91906117ec565b908152602001604051809103902060000160006101000a81548173ffffffffffffffffffffffffffffffffffffffff021916908373ffffffffffffffffffffffffffffffffffffffff160217905550611010565b6040517f1b2dcfd100000000000000000000000000000000000000000000000000000000815260040160405180910390fd5b5b50565b6000815114806110505750600073ffffffffffffffffffffffffffffffffffffffff168273ffffffffffffffffffffffffffffffffffffffff16145b15611087576040517f7f0ead2800000000000000000000000000000000000000000000000000000000815260040160405180910390fd5b3373ffffffffffffffffffffffffffffffffffffffff166000826040516110ae91906117ec565b908152602001604051809103902060000160009054906101000a900473ffffffffffffffffffffffffffffffffffffffff1673ffffffffffffffffffffffffffffffffffffffff161461112d576040517f7f0ead2800000000000000000000000000000000000000000000000000000000815260040160405180910390fd5b600160008260405161113f91906117ec565b908152602001604051809103902060010160008473ffffffffffffffffffffffffffffffffffffffff1673ffffffffffffffffffffffffffffffffffffffff16815260200190815260200160002060006101000a81548160ff0219169083151502179055506000816040516111b491906117ec565b9081526020016040518091039020600201829080600181540180825580915050600190039060005260206000200160009091909190916101000a81548173ffffffffffffffffffffffffffffffffffffffff021916908373ffffffffffffffffffffffffffffffffffffffff1602179055505050565b60005b828290508110156112bb576112a883838381811061124e5761124d611803565b5b90506020028101906112609190611841565b8080601f016020809104026020016040519081016040528093929190818152602001838380828437600081840152601f19601f82011690508083019250505050505050610e1c565b80806112b3906118dd565b91505061122d565b505050565b600033905090565b6000604051905090565b600080fd5b600080fd5b600073ffffffffffffffffffffffffffffffffffffffff82169050919050565b6000611307826112dc565b9050919050565b611317816112fc565b811461132257600080fd5b50565b6000813590506113348161130e565b92915050565b600080fd5b600080fd5b6000601f19601f8301169050919050565b7f4e487b7100000000000000000000000000000000000000000000000000000000600052604160045260246000fd5b61138d82611344565b810181811067ffffffffffffffff821117156113ac576113ab611355565b5b80604052505050565b60006113bf6112c8565b90506113cb8282611384565b919050565b600067ffffffffffffffff8211156113eb576113ea611355565b5b6113f482611344565b9050602081019050919050565b82818337600083830152505050565b600061142361141e846113d0565b6113b5565b90508281526020810184848401111561143f5761143e61133f565b5b61144a848285611401565b509392505050565b600082601f8301126114675761146661133a565b5b8135611477848260208601611410565b91505092915050565b60008060408385031215611497576114966112d2565b5b60006114a585828601611325565b925050602083013567ffffffffffffffff8111156114c6576114c56112d7565b5b6114d285828601611452565b9150509250929050565b6114e5816112fc565b82525050565b600060208201905061150060008301846114dc565b92915050565b600080fd5b600080fd5b60008083601f8401126115265761152561133a565b5b8235905067ffffffffffffffff81111561154357611542611506565b5b60208301915083602082028301111561155f5761155e61150b565b5b9250929050565b6000806020838503121561157d5761157c6112d2565b5b600083013567ffffffffffffffff81111561159b5761159a6112d7565b5b6115a785828601611510565b92509250509250929050565b600081519050919050565b600082825260208201905092915050565b6000819050602082019050919050565b60008115159050919050565b6115f4816115df565b82525050565b600061160683836115eb565b60208301905092915050565b6000602082019050919050565b600061162a826115b3565b61163481856115be565b935061163f836115cf565b8060005b8381101561167057815161165788826115fa565b975061166283611612565b925050600181019050611643565b5085935050505092915050565b60006020820190508181036000830152611697818461161f565b905092915050565b6000602082840312156116b5576116b46112d2565b5b600082013567ffffffffffffffff8111156116d3576116d26112d7565b5b6116df84828501611452565b91505092915050565b6116f1816115df565b82525050565b600060208201905061170c60008301846116e8565b92915050565b60008060006040848603121561172b5761172a6112d2565b5b600061173986828701611325565b935050602084013567ffffffffffffffff81111561175a576117596112d7565b5b61176686828701611510565b92509250509250925092565b600081519050919050565b600081905092915050565b60005b838110156117a657808201518184015260208101905061178b565b838111156117b5576000848401525b50505050565b60006117c682611772565b6117d0818561177d565b93506117e0818560208601611788565b80840191505092915050565b60006117f882846117bb565b915081905092915050565b7f4e487b7100000000000000000000000000000000000000000000000000000000600052603260045260246000fd5b600080fd5b600080fd5b600080fd5b6000808335600160200384360303811261185e5761185d611832565b5b80840192508235915067ffffffffffffffff8211156118805761187f611837565b5b60208301925060018202360383131561189c5761189b61183c565b5b509250929050565b7f4e487b7100000000000000000000000000000000000000000000000000000000600052601160045260246000fd5b6000819050919050565b60006118e8826118d3565b91507fffffffffffffffffffffffffffffffffffffffffffffffffffffffffffffffff82141561191b5761191a6118a4565b5b600182019050919050565b6000611931826118d3565b915061193c836118d3565b92508282101561194f5761194e6118a4565b5b828203905092915050565b7f4e487b7100000000000000000000000000000000000000000000000000000000600052603160045260246000fd5b6000611994826118d3565b915060008214156119a8576119a76118a4565b5b60018203905091905056fea26469706673582212203a36826817a5434a5505923713641df5846cec23a30a837a52d6ab255e92ed2e64736f6c634300080a0033",
  "immutableReferences": {},
  "source": "//SPDX-License-Identifier: Unlicense\n\npragma solidity ^0.8.4;\n\nerror addBlockFailure();\nerror deleteBlockFailure();\nerror grantAccessFailure();\nerror removeAccessFailure();\n\ncontract ptvAcl {\n\n    struct FileData {\n        address owner;\n        mapping(address => bool) access;\n        address[] allowedAddresses;\n    }\n    mapping(string => FileData) public fileMapping;\n\n    function addBlock(string memory _fileChunkHash) public {\n        if ((bytes(_fileChunkHash).length > 0) && (fileMapping[_fileChunkHash].owner == address(0))) {\n            fileMapping[_fileChunkHash].owner = msg.sender;\n        } else if (fileMapping[_fileChunkHash].owner == msg.sender) {\n            fileMapping[_fileChunkHash].owner = msg.sender;\n        } else {\n            revert addBlockFailure();\n        }\n    }\n\n    function addBlockMultiple(string[] calldata _fileChunkHashes) public {\n        uint i;\n\n        for (i = 0; i < _fileChunkHashes.length; i++) {\n            addBlock(_fileChunkHashes[i]);\n        }\n    }\n\n    function amIOwner(string memory _fileChunkHash) public view returns(bool) {\n        if ((bytes(_fileChunkHash).length == 0) || (fileMapping[_fileChunkHash].owner != msg.sender)) {\n            return false;\n        } else {\n            return true;\n        }\n    }\n\n    function amIOwnerMultiple(string[] calldata _fileChunkHashes) public view returns (bool[] memory) {\n        uint i;\n        bool[] memory filesOwned = new bool[](_fileChunkHashes.length);\n\n        for(i = 0; i < _fileChunkHashes.length; i++) {\n            filesOwned[i] = amIOwner(_fileChunkHashes[i]);\n        }\n\n        return filesOwned;\n    }\n\n    function checkAccess(address _checkAddress, string memory _fileChunkHash) public view returns (bool) {\n        if((bytes(_fileChunkHash).length == 0) || (_checkAddress == address(0))) {\n            return false;\n        } else {\n            if((_checkAddress == fileMapping[_fileChunkHash].owner) || (fileMapping[_fileChunkHash].access[_checkAddress] == true)){\n                return true;\n            }\n        }\n\n        return false;\n    }\n\n    function checkAccessMultiple(address _checkAddress, string[] calldata _fileChunkHashes) public view returns (bool[] memory){\n        uint i;\n        bool[] memory filesAccess = new bool[](_fileChunkHashes.length);\n\n        for(i = 0; i < _fileChunkHashes.length; i++) {\n            filesAccess[i] = checkAccess(_checkAddress, _fileChunkHashes[i]);\n        }\n\n        return filesAccess;\n    }\n\n    function checkMessageSender() public view returns (address) {\n        return msg.sender;\n    }\n\n    function deleteBlock(string memory _fileChunkHash) public {\n        uint i;\n        \n        if((bytes(_fileChunkHash).length == 0) || (fileMapping[_fileChunkHash].owner != msg.sender)) {\n            revert deleteBlockFailure();\n        }\n\n        if (fileMapping[_fileChunkHash].allowedAddresses.length > 0) {\n            for(i = fileMapping[_fileChunkHash].allowedAddresses.length - 1; i >= 0; i--) {\n                fileMapping[_fileChunkHash].access[fileMapping[_fileChunkHash].allowedAddresses[i]] = false;\n                fileMapping[_fileChunkHash].allowedAddresses.pop(); // There may be a more efficient way to do this\n             }\n        }\n\n        fileMapping[_fileChunkHash].owner = address(0);\n    }\n\n    function deleteBlockMultiple(string[] calldata _fileChunkHashes) public {\n        uint i;\n        for(i=0; i < _fileChunkHashes.length; i++)\n            deleteBlock(_fileChunkHashes[i]);\n    }\n\n    function grantAccess(address _inputAddress, string memory _fileChunkHash) public {\n        if((bytes(_fileChunkHash).length == 0) || (_inputAddress == address(0))) {\n            revert grantAccessFailure();\n        } else {\n            if(fileMapping[_fileChunkHash].owner != msg.sender) {\n                revert grantAccessFailure();\n            } else {\n                fileMapping[_fileChunkHash].access[_inputAddress] = true;\n                fileMapping[_fileChunkHash].allowedAddresses.push(_inputAddress);\n            }\n        }\n    }\n\n    function grantAccessMultiple(address _inputAddress, string[] calldata _fileChunkHashes) public  {\n        uint i;\n        for(i = 0; i < _fileChunkHashes.length; i++)\n            grantAccess(_inputAddress, _fileChunkHashes[i]);\n    }\n\n    function inspectSender() public view returns(address) {\n        return msg.sender;\n    }\n\n    function removeAccess(address _inputAddress, string memory _fileChunkHash) public {\n        if((bytes(_fileChunkHash).length == 0) || (_inputAddress == address(0))) {\n            revert removeAccessFailure();\n        } else {\n            if(fileMapping[_fileChunkHash].owner != msg.sender) {\n                revert removeAccessFailure();\n            } else {\n                fileMapping[_fileChunkHash].access[_inputAddress] = false;\n                fileMapping[_fileChunkHash].allowedAddresses.push(_inputAddress);\n            }\n        }\n    }\n\n    function removeAccessMultiple(address _inputAddress, string[] calldata _fileChunkHashes) public {\n        uint i;\n        for(i = 0; i < _fileChunkHashes.length; i++)\n            removeAccess(_inputAddress, _fileChunkHashes[i]);\n    }\n}",
  "sourcePath": "/home/james/Desktop/UCF_Courses/Fall_2021/COP4935/ptvAcl/contracts/ptvAcl.sol",
  "compiler": {
    "name": "solc",
    "version": "0.8.10+commit.fc410830.Emscripten.clang"
  },
  "schemaVersion": "3.4.3",
  "updatedAt": "2021-11-14T16:46:42.019Z",
  "networkType": "ethereum",
  "devdoc": {
    "kind": "dev",
    "methods": {},
    "version": 1
  },
  "userdoc": {
    "kind": "user",
    "methods": {},
    "version": 1
  }
}